{
	"data": {
		"bytecode": {
			"linkReferences": {},
			"object": "60806040526000600160146101000a81548160ff0219169083151502179055506000600255600a600355605a6004553480156200003b57600080fd5b50604051620019d9380380620019d9833981810160405281019062000061919062000213565b6200008162000075620000c960201b60201c565b620000d160201b60201c565b80600160006101000a81548173ffffffffffffffffffffffffffffffffffffffff021916908373ffffffffffffffffffffffffffffffffffffffff1602179055505062000245565b600033905090565b60008060009054906101000a900473ffffffffffffffffffffffffffffffffffffffff169050816000806101000a81548173ffffffffffffffffffffffffffffffffffffffff021916908373ffffffffffffffffffffffffffffffffffffffff1602179055508173ffffffffffffffffffffffffffffffffffffffff168173ffffffffffffffffffffffffffffffffffffffff167f8be0079c531659141344cd1fd0a4f28419497f9722a3daafe3b4186f6b6457e060405160405180910390a35050565b600080fd5b600073ffffffffffffffffffffffffffffffffffffffff82169050919050565b6000620001c7826200019a565b9050919050565b6000620001db82620001ba565b9050919050565b620001ed81620001ce565b8114620001f957600080fd5b50565b6000815190506200020d81620001e2565b92915050565b6000602082840312156200022c576200022b62000195565b5b60006200023c84828501620001fc565b91505092915050565b61178480620002556000396000f3fe608060405234801561001057600080fd5b50600436106101005760003560e01c80638da5cb5b11610097578063ec18154e11610066578063ec18154e1461023b578063eca5b8d314610259578063f2fde38b14610289578063fc0c546a146102a557610100565b80638da5cb5b146101c7578063a4bf1361146101e5578063a694fc3a14610201578063c03d5b471461021d57610100565b80636c57f5a9116100d35780636c57f5a9146101535780636fd4185e14610171578063715018a6146101a157806376159b68146101ab57610100565b80632def6620146101055780632e33d4c11461010f5780634e71d92d1461012b57806352d472eb14610135575b600080fd5b61010d6102c3565b005b61012960048036038101906101249190610f37565b61052a565b005b6101336105c3565b005b61013d61068f565b60405161014a9190610f7d565b60405180910390f35b61015b610695565b6040516101689190610fa7565b60405180910390f35b61018b60048036038101906101869190611020565b6106a8565b6040516101989190610f7d565b60405180910390f35b6101a96106c0565b005b6101c560048036038101906101c09190611079565b610748565b005b6101cf61081f565b6040516101dc91906110b5565b60405180910390f35b6101ff60048036038101906101fa9190611079565b610848565b005b61021b60048036038101906102169190611079565b610911565b005b610225610bcb565b6040516102329190610f7d565b60405180910390f35b610243610bd1565b6040516102509190610f7d565b60405180910390f35b610273600480360381019061026e9190611020565b610bd7565b6040516102809190610f7d565b60405180910390f35b6102a3600480360381019061029e9190611020565b610bef565b005b6102ad610ce7565b6040516102ba919061112f565b60405180910390f35b6000600560003373ffffffffffffffffffffffffffffffffffffffff1673ffffffffffffffffffffffffffffffffffffffff1681526020019081526020016000205411610345576040517f08c379a000000000000000000000000000000000000000000000000000000000815260040161033c906111a7565b60405180910390fd5b61034e33610d0d565b1561038e576040517f08c379a000000000000000000000000000000000000000000000000000000000815260040161038590611239565b60405180910390fd5b6000600560003373ffffffffffffffffffffffffffffffffffffffff1673ffffffffffffffffffffffffffffffffffffffff1681526020019081526020016000205490506000339050600160009054906101000a900473ffffffffffffffffffffffffffffffffffffffff1673ffffffffffffffffffffffffffffffffffffffff1663a9059cbb82846040518363ffffffff1660e01b8152600401610434929190611259565b6020604051808303816000875af1158015610453573d6000803e3d6000fd5b505050506040513d601f19601f820116820180604052508101906104779190611297565b5061048d82600254610dec90919063ffffffff16565b6002819055508073ffffffffffffffffffffffffffffffffffffffff167fc99009ef3dfc0489efa43797eee17157bc922e1ccfdddd9807414c7ca7b10f7c836040516104d99190610f7d565b60405180910390a26000600560003373ffffffffffffffffffffffffffffffffffffffff1673ffffffffffffffffffffffffffffffffffffffff168152602001908152602001600020819055505050565b610532610e02565b73ffffffffffffffffffffffffffffffffffffffff1661055061081f565b73ffffffffffffffffffffffffffffffffffffffff16146105a6576040517f08c379a000000000000000000000000000000000000000000000000000000000815260040161059d90611310565b60405180910390fd5b80600160146101000a81548160ff02191690831515021790555050565b6000600560003373ffffffffffffffffffffffffffffffffffffffff1673ffffffffffffffffffffffffffffffffffffffff1681526020019081526020016000205411610645576040517f08c379a000000000000000000000000000000000000000000000000000000000815260040161063c906111a7565b60405180910390fd5b61064e33610d0d565b61068d576040517f08c379a00000000000000000000000000000000000000000000000000000000081526004016106849061137c565b60405180910390fd5b565b60035481565b600160149054906101000a900460ff1681565b60066020528060005260406000206000915090505481565b6106c8610e02565b73ffffffffffffffffffffffffffffffffffffffff166106e661081f565b73ffffffffffffffffffffffffffffffffffffffff161461073c576040517f08c379a000000000000000000000000000000000000000000000000000000000815260040161073390611310565b60405180910390fd5b6107466000610e0a565b565b610750610e02565b73ffffffffffffffffffffffffffffffffffffffff1661076e61081f565b73ffffffffffffffffffffffffffffffffffffffff16146107c4576040517f08c379a00000000000000000000000000000000000000000000000000000000081526004016107bb90611310565b60405180910390fd5b600081101580156107d6575060648111155b610815576040517f08c379a000000000000000000000000000000000000000000000000000000000815260040161080c9061140e565b60405180910390fd5b8060038190555050565b60008060009054906101000a900473ffffffffffffffffffffffffffffffffffffffff16905090565b610850610e02565b73ffffffffffffffffffffffffffffffffffffffff1661086e61081f565b73ffffffffffffffffffffffffffffffffffffffff16146108c4576040517f08c379a00000000000000000000000000000000000000000000000000000000081526004016108bb90611310565b60405180910390fd5b60008111610907576040517f08c379a00000000000000000000000000000000000000000000000000000000081526004016108fe9061147a565b60405180910390fd5b8060048190555050565b600160149054906101000a900460ff1615610961576040517f08c379a0000000000000000000000000000000000000000000000000000000008152600401610958906114e6565b60405180910390fd5b600081116109a4576040517f08c379a000000000000000000000000000000000000000000000000000000000815260040161099b90611552565b60405180910390fd5b600160009054906101000a900473ffffffffffffffffffffffffffffffffffffffff1673ffffffffffffffffffffffffffffffffffffffff166323b872dd3330846040518463ffffffff1660e01b8152600401610a0393929190611572565b6020604051808303816000875af1158015610a22573d6000803e3d6000fd5b505050506040513d601f19601f82011682018060405250810190610a469190611297565b50610a5c81600254610ece90919063ffffffff16565b600281905550610ab481600560003373ffffffffffffffffffffffffffffffffffffffff1673ffffffffffffffffffffffffffffffffffffffff16815260200190815260200160002054610ece90919063ffffffff16565b600560003373ffffffffffffffffffffffffffffffffffffffff1673ffffffffffffffffffffffffffffffffffffffff1681526020019081526020016000208190555042600660003373ffffffffffffffffffffffffffffffffffffffff1673ffffffffffffffffffffffffffffffffffffffff168152602001908152602001600020819055503373ffffffffffffffffffffffffffffffffffffffff167f8f169816223f856d6f6a5945e3f7c520efe6c139d4152b6bb65e454babb2f2cb600560003373ffffffffffffffffffffffffffffffffffffffff1673ffffffffffffffffffffffffffffffffffffffff16815260200190815260200160002054604051610bc09190610f7d565b60405180910390a250565b60045481565b60025481565b60056020528060005260406000206000915090505481565b610bf7610e02565b73ffffffffffffffffffffffffffffffffffffffff16610c1561081f565b73ffffffffffffffffffffffffffffffffffffffff1614610c6b576040517f08c379a0000000000000000000000000000000000000000000000000000000008152600401610c6290611310565b60405180910390fd5b600073ffffffffffffffffffffffffffffffffffffffff168173ffffffffffffffffffffffffffffffffffffffff161415610cdb576040517f08c379a0000000000000000000000000000000000000000000000000000000008152600401610cd29061161b565b60405180910390fd5b610ce481610e0a565b50565b600160009054906101000a900473ffffffffffffffffffffffffffffffffffffffff1681565b6000808290506000610d7c610d2e6001600454610ee490919063ffffffff16565b600660003373ffffffffffffffffffffffffffffffffffffffff1673ffffffffffffffffffffffffffffffffffffffff16815260200190815260200160002054610ece90919063ffffffff16565b905080421115610de0578173ffffffffffffffffffffffffffffffffffffffff167fa415463bd6e1b143312939f13127d2f3b6892631d482bdb33ca450a5a8157a256001604051610dcd9190610fa7565b60405180910390a2600192505050610de7565b6000925050505b919050565b60008183610dfa919061166a565b905092915050565b600033905090565b60008060009054906101000a900473ffffffffffffffffffffffffffffffffffffffff169050816000806101000a81548173ffffffffffffffffffffffffffffffffffffffff021916908373ffffffffffffffffffffffffffffffffffffffff1602179055508173ffffffffffffffffffffffffffffffffffffffff168173ffffffffffffffffffffffffffffffffffffffff167f8be0079c531659141344cd1fd0a4f28419497f9722a3daafe3b4186f6b6457e060405160405180910390a35050565b60008183610edc919061169e565b905092915050565b60008183610ef291906116f4565b905092915050565b600080fd5b60008115159050919050565b610f1481610eff565b8114610f1f57600080fd5b50565b600081359050610f3181610f0b565b92915050565b600060208284031215610f4d57610f4c610efa565b5b6000610f5b84828501610f22565b91505092915050565b6000819050919050565b610f7781610f64565b82525050565b6000602082019050610f926000830184610f6e565b92915050565b610fa181610eff565b82525050565b6000602082019050610fbc6000830184610f98565b92915050565b600073ffffffffffffffffffffffffffffffffffffffff82169050919050565b6000610fed82610fc2565b9050919050565b610ffd81610fe2565b811461100857600080fd5b50565b60008135905061101a81610ff4565b92915050565b60006020828403121561103657611035610efa565b5b60006110448482850161100b565b91505092915050565b61105681610f64565b811461106157600080fd5b50565b6000813590506110738161104d565b92915050565b60006020828403121561108f5761108e610efa565b5b600061109d84828501611064565b91505092915050565b6110af81610fe2565b82525050565b60006020820190506110ca60008301846110a6565b92915050565b6000819050919050565b60006110f56110f06110eb84610fc2565b6110d0565b610fc2565b9050919050565b6000611107826110da565b9050919050565b6000611119826110fc565b9050919050565b6111298161110e565b82525050565b60006020820190506111446000830184611120565b92915050565b600082825260208201905092915050565b7f496e73756666696369656e742062616c616e6365000000000000000000000000600082015250565b600061119160148361114a565b915061119c8261115b565b602082019050919050565b600060208201905081810360008301526111c081611184565b9050919050565b7f5374616b696e6720706572696f6420636f6d706c657465642c20636c61696d2060008201527f796f757220726577617264730000000000000000000000000000000000000000602082015250565b6000611223602c8361114a565b915061122e826111c7565b604082019050919050565b6000602082019050818103600083015261125281611216565b9050919050565b600060408201905061126e60008301856110a6565b61127b6020830184610f6e565b9392505050565b60008151905061129181610f0b565b92915050565b6000602082840312156112ad576112ac610efa565b5b60006112bb84828501611282565b91505092915050565b7f4f776e61626c653a2063616c6c6572206973206e6f7420746865206f776e6572600082015250565b60006112fa60208361114a565b9150611305826112c4565b602082019050919050565b60006020820190508181036000830152611329816112ed565b9050919050565b7f4e6f207265776172647320746f20636c61696d00000000000000000000000000600082015250565b600061136660138361114a565b915061137182611330565b602082019050919050565b6000602082019050818103600083015261139581611359565b9050919050565b7f546865206e657720415059206d757374206265206265747765656e203020616e60008201527f6420313030000000000000000000000000000000000000000000000000000000602082015250565b60006113f860258361114a565b91506114038261139c565b604082019050919050565b60006020820190508181036000830152611427816113eb565b9050919050565b7f6e657720706572696f64206d757374206265206d6f7265207468616e20300000600082015250565b6000611464601e8361114a565b915061146f8261142e565b602082019050919050565b6000602082019050818103600083015261149381611457565b9050919050565b7f5374616b696e672069732063757272656e746c792064697361626c6564000000600082015250565b60006114d0601d8361114a565b91506114db8261149a565b602082019050919050565b600060208201905081810360008301526114ff816114c3565b9050919050565b7f616d6f756e742073686f756c64206265206d6f7265207468616e203000000000600082015250565b600061153c601c8361114a565b915061154782611506565b602082019050919050565b6000602082019050818103600083015261156b8161152f565b9050919050565b600060608201905061158760008301866110a6565b61159460208301856110a6565b6115a16040830184610f6e565b949350505050565b7f4f776e61626c653a206e6577206f776e657220697320746865207a65726f206160008201527f6464726573730000000000000000000000000000000000000000000000000000602082015250565b600061160560268361114a565b9150611610826115a9565b604082019050919050565b60006020820190508181036000830152611634816115f8565b9050919050565b7f4e487b7100000000000000000000000000000000000000000000000000000000600052601160045260246000fd5b600061167582610f64565b915061168083610f64565b9250828210156116935761169261163b565b5b828203905092915050565b60006116a982610f64565b91506116b483610f64565b9250827fffffffffffffffffffffffffffffffffffffffffffffffffffffffffffffffff038211156116e9576116e861163b565b5b828201905092915050565b60006116ff82610f64565b915061170a83610f64565b9250817fffffffffffffffffffffffffffffffffffffffffffffffffffffffffffffffff04831182151516156117435761174261163b565b5b82820290509291505056fea2646970667358221220239f9d5465aeecd509cc62c8d495afccc8709d445a435a960f554f15b55e5cf464736f6c634300080b0033",
			"opcodes": "PUSH1 0x80 PUSH1 0x40 MSTORE PUSH1 0x0 PUSH1 0x1 PUSH1 0x14 PUSH2 0x100 EXP DUP2 SLOAD DUP2 PUSH1 0xFF MUL NOT AND SWAP1 DUP4 ISZERO ISZERO MUL OR SWAP1 SSTORE POP PUSH1 0x0 PUSH1 0x2 SSTORE PUSH1 0xA PUSH1 0x3 SSTORE PUSH1 0x5A PUSH1 0x4 SSTORE CALLVALUE DUP1 ISZERO PUSH3 0x3B JUMPI PUSH1 0x0 DUP1 REVERT JUMPDEST POP PUSH1 0x40 MLOAD PUSH3 0x19D9 CODESIZE SUB DUP1 PUSH3 0x19D9 DUP4 CODECOPY DUP2 DUP2 ADD PUSH1 0x40 MSTORE DUP2 ADD SWAP1 PUSH3 0x61 SWAP2 SWAP1 PUSH3 0x213 JUMP JUMPDEST PUSH3 0x81 PUSH3 0x75 PUSH3 0xC9 PUSH1 0x20 SHL PUSH1 0x20 SHR JUMP JUMPDEST PUSH3 0xD1 PUSH1 0x20 SHL PUSH1 0x20 SHR JUMP JUMPDEST DUP1 PUSH1 0x1 PUSH1 0x0 PUSH2 0x100 EXP DUP2 SLOAD DUP2 PUSH20 0xFFFFFFFFFFFFFFFFFFFFFFFFFFFFFFFFFFFFFFFF MUL NOT AND SWAP1 DUP4 PUSH20 0xFFFFFFFFFFFFFFFFFFFFFFFFFFFFFFFFFFFFFFFF AND MUL OR SWAP1 SSTORE POP POP PUSH3 0x245 JUMP JUMPDEST PUSH1 0x0 CALLER SWAP1 POP SWAP1 JUMP JUMPDEST PUSH1 0x0 DUP1 PUSH1 0x0 SWAP1 SLOAD SWAP1 PUSH2 0x100 EXP SWAP1 DIV PUSH20 0xFFFFFFFFFFFFFFFFFFFFFFFFFFFFFFFFFFFFFFFF AND SWAP1 POP DUP2 PUSH1 0x0 DUP1 PUSH2 0x100 EXP DUP2 SLOAD DUP2 PUSH20 0xFFFFFFFFFFFFFFFFFFFFFFFFFFFFFFFFFFFFFFFF MUL NOT AND SWAP1 DUP4 PUSH20 0xFFFFFFFFFFFFFFFFFFFFFFFFFFFFFFFFFFFFFFFF AND MUL OR SWAP1 SSTORE POP DUP2 PUSH20 0xFFFFFFFFFFFFFFFFFFFFFFFFFFFFFFFFFFFFFFFF AND DUP2 PUSH20 0xFFFFFFFFFFFFFFFFFFFFFFFFFFFFFFFFFFFFFFFF AND PUSH32 0x8BE0079C531659141344CD1FD0A4F28419497F9722A3DAAFE3B4186F6B6457E0 PUSH1 0x40 MLOAD PUSH1 0x40 MLOAD DUP1 SWAP2 SUB SWAP1 LOG3 POP POP JUMP JUMPDEST PUSH1 0x0 DUP1 REVERT JUMPDEST PUSH1 0x0 PUSH20 0xFFFFFFFFFFFFFFFFFFFFFFFFFFFFFFFFFFFFFFFF DUP3 AND SWAP1 POP SWAP2 SWAP1 POP JUMP JUMPDEST PUSH1 0x0 PUSH3 0x1C7 DUP3 PUSH3 0x19A JUMP JUMPDEST SWAP1 POP SWAP2 SWAP1 POP JUMP JUMPDEST PUSH1 0x0 PUSH3 0x1DB DUP3 PUSH3 0x1BA JUMP JUMPDEST SWAP1 POP SWAP2 SWAP1 POP JUMP JUMPDEST PUSH3 0x1ED DUP2 PUSH3 0x1CE JUMP JUMPDEST DUP2 EQ PUSH3 0x1F9 JUMPI PUSH1 0x0 DUP1 REVERT JUMPDEST POP JUMP JUMPDEST PUSH1 0x0 DUP2 MLOAD SWAP1 POP PUSH3 0x20D DUP2 PUSH3 0x1E2 JUMP JUMPDEST SWAP3 SWAP2 POP POP JUMP JUMPDEST PUSH1 0x0 PUSH1 0x20 DUP3 DUP5 SUB SLT ISZERO PUSH3 0x22C JUMPI PUSH3 0x22B PUSH3 0x195 JUMP JUMPDEST JUMPDEST PUSH1 0x0 PUSH3 0x23C DUP5 DUP3 DUP6 ADD PUSH3 0x1FC JUMP JUMPDEST SWAP2 POP POP SWAP3 SWAP2 POP POP JUMP JUMPDEST PUSH2 0x1784 DUP1 PUSH3 0x255 PUSH1 0x0 CODECOPY PUSH1 0x0 RETURN INVALID PUSH1 0x80 PUSH1 0x40 MSTORE CALLVALUE DUP1 ISZERO PUSH2 0x10 JUMPI PUSH1 0x0 DUP1 REVERT JUMPDEST POP PUSH1 0x4 CALLDATASIZE LT PUSH2 0x100 JUMPI PUSH1 0x0 CALLDATALOAD PUSH1 0xE0 SHR DUP1 PUSH4 0x8DA5CB5B GT PUSH2 0x97 JUMPI DUP1 PUSH4 0xEC18154E GT PUSH2 0x66 JUMPI DUP1 PUSH4 0xEC18154E EQ PUSH2 0x23B JUMPI DUP1 PUSH4 0xECA5B8D3 EQ PUSH2 0x259 JUMPI DUP1 PUSH4 0xF2FDE38B EQ PUSH2 0x289 JUMPI DUP1 PUSH4 0xFC0C546A EQ PUSH2 0x2A5 JUMPI PUSH2 0x100 JUMP JUMPDEST DUP1 PUSH4 0x8DA5CB5B EQ PUSH2 0x1C7 JUMPI DUP1 PUSH4 0xA4BF1361 EQ PUSH2 0x1E5 JUMPI DUP1 PUSH4 0xA694FC3A EQ PUSH2 0x201 JUMPI DUP1 PUSH4 0xC03D5B47 EQ PUSH2 0x21D JUMPI PUSH2 0x100 JUMP JUMPDEST DUP1 PUSH4 0x6C57F5A9 GT PUSH2 0xD3 JUMPI DUP1 PUSH4 0x6C57F5A9 EQ PUSH2 0x153 JUMPI DUP1 PUSH4 0x6FD4185E EQ PUSH2 0x171 JUMPI DUP1 PUSH4 0x715018A6 EQ PUSH2 0x1A1 JUMPI DUP1 PUSH4 0x76159B68 EQ PUSH2 0x1AB JUMPI PUSH2 0x100 JUMP JUMPDEST DUP1 PUSH4 0x2DEF6620 EQ PUSH2 0x105 JUMPI DUP1 PUSH4 0x2E33D4C1 EQ PUSH2 0x10F JUMPI DUP1 PUSH4 0x4E71D92D EQ PUSH2 0x12B JUMPI DUP1 PUSH4 0x52D472EB EQ PUSH2 0x135 JUMPI JUMPDEST PUSH1 0x0 DUP1 REVERT JUMPDEST PUSH2 0x10D PUSH2 0x2C3 JUMP JUMPDEST STOP JUMPDEST PUSH2 0x129 PUSH1 0x4 DUP1 CALLDATASIZE SUB DUP2 ADD SWAP1 PUSH2 0x124 SWAP2 SWAP1 PUSH2 0xF37 JUMP JUMPDEST PUSH2 0x52A JUMP JUMPDEST STOP JUMPDEST PUSH2 0x133 PUSH2 0x5C3 JUMP JUMPDEST STOP JUMPDEST PUSH2 0x13D PUSH2 0x68F JUMP JUMPDEST PUSH1 0x40 MLOAD PUSH2 0x14A SWAP2 SWAP1 PUSH2 0xF7D JUMP JUMPDEST PUSH1 0x40 MLOAD DUP1 SWAP2 SUB SWAP1 RETURN JUMPDEST PUSH2 0x15B PUSH2 0x695 JUMP JUMPDEST PUSH1 0x40 MLOAD PUSH2 0x168 SWAP2 SWAP1 PUSH2 0xFA7 JUMP JUMPDEST PUSH1 0x40 MLOAD DUP1 SWAP2 SUB SWAP1 RETURN JUMPDEST PUSH2 0x18B PUSH1 0x4 DUP1 CALLDATASIZE SUB DUP2 ADD SWAP1 PUSH2 0x186 SWAP2 SWAP1 PUSH2 0x1020 JUMP JUMPDEST PUSH2 0x6A8 JUMP JUMPDEST PUSH1 0x40 MLOAD PUSH2 0x198 SWAP2 SWAP1 PUSH2 0xF7D JUMP JUMPDEST PUSH1 0x40 MLOAD DUP1 SWAP2 SUB SWAP1 RETURN JUMPDEST PUSH2 0x1A9 PUSH2 0x6C0 JUMP JUMPDEST STOP JUMPDEST PUSH2 0x1C5 PUSH1 0x4 DUP1 CALLDATASIZE SUB DUP2 ADD SWAP1 PUSH2 0x1C0 SWAP2 SWAP1 PUSH2 0x1079 JUMP JUMPDEST PUSH2 0x748 JUMP JUMPDEST STOP JUMPDEST PUSH2 0x1CF PUSH2 0x81F JUMP JUMPDEST PUSH1 0x40 MLOAD PUSH2 0x1DC SWAP2 SWAP1 PUSH2 0x10B5 JUMP JUMPDEST PUSH1 0x40 MLOAD DUP1 SWAP2 SUB SWAP1 RETURN JUMPDEST PUSH2 0x1FF PUSH1 0x4 DUP1 CALLDATASIZE SUB DUP2 ADD SWAP1 PUSH2 0x1FA SWAP2 SWAP1 PUSH2 0x1079 JUMP JUMPDEST PUSH2 0x848 JUMP JUMPDEST STOP JUMPDEST PUSH2 0x21B PUSH1 0x4 DUP1 CALLDATASIZE SUB DUP2 ADD SWAP1 PUSH2 0x216 SWAP2 SWAP1 PUSH2 0x1079 JUMP JUMPDEST PUSH2 0x911 JUMP JUMPDEST STOP JUMPDEST PUSH2 0x225 PUSH2 0xBCB JUMP JUMPDEST PUSH1 0x40 MLOAD PUSH2 0x232 SWAP2 SWAP1 PUSH2 0xF7D JUMP JUMPDEST PUSH1 0x40 MLOAD DUP1 SWAP2 SUB SWAP1 RETURN JUMPDEST PUSH2 0x243 PUSH2 0xBD1 JUMP JUMPDEST PUSH1 0x40 MLOAD PUSH2 0x250 SWAP2 SWAP1 PUSH2 0xF7D JUMP JUMPDEST PUSH1 0x40 MLOAD DUP1 SWAP2 SUB SWAP1 RETURN JUMPDEST PUSH2 0x273 PUSH1 0x4 DUP1 CALLDATASIZE SUB DUP2 ADD SWAP1 PUSH2 0x26E SWAP2 SWAP1 PUSH2 0x1020 JUMP JUMPDEST PUSH2 0xBD7 JUMP JUMPDEST PUSH1 0x40 MLOAD PUSH2 0x280 SWAP2 SWAP1 PUSH2 0xF7D JUMP JUMPDEST PUSH1 0x40 MLOAD DUP1 SWAP2 SUB SWAP1 RETURN JUMPDEST PUSH2 0x2A3 PUSH1 0x4 DUP1 CALLDATASIZE SUB DUP2 ADD SWAP1 PUSH2 0x29E SWAP2 SWAP1 PUSH2 0x1020 JUMP JUMPDEST PUSH2 0xBEF JUMP JUMPDEST STOP JUMPDEST PUSH2 0x2AD PUSH2 0xCE7 JUMP JUMPDEST PUSH1 0x40 MLOAD PUSH2 0x2BA SWAP2 SWAP1 PUSH2 0x112F JUMP JUMPDEST PUSH1 0x40 MLOAD DUP1 SWAP2 SUB SWAP1 RETURN JUMPDEST PUSH1 0x0 PUSH1 0x5 PUSH1 0x0 CALLER PUSH20 0xFFFFFFFFFFFFFFFFFFFFFFFFFFFFFFFFFFFFFFFF AND PUSH20 0xFFFFFFFFFFFFFFFFFFFFFFFFFFFFFFFFFFFFFFFF AND DUP2 MSTORE PUSH1 0x20 ADD SWAP1 DUP2 MSTORE PUSH1 0x20 ADD PUSH1 0x0 KECCAK256 SLOAD GT PUSH2 0x345 JUMPI PUSH1 0x40 MLOAD PUSH32 0x8C379A000000000000000000000000000000000000000000000000000000000 DUP2 MSTORE PUSH1 0x4 ADD PUSH2 0x33C SWAP1 PUSH2 0x11A7 JUMP JUMPDEST PUSH1 0x40 MLOAD DUP1 SWAP2 SUB SWAP1 REVERT JUMPDEST PUSH2 0x34E CALLER PUSH2 0xD0D JUMP JUMPDEST ISZERO PUSH2 0x38E JUMPI PUSH1 0x40 MLOAD PUSH32 0x8C379A000000000000000000000000000000000000000000000000000000000 DUP2 MSTORE PUSH1 0x4 ADD PUSH2 0x385 SWAP1 PUSH2 0x1239 JUMP JUMPDEST PUSH1 0x40 MLOAD DUP1 SWAP2 SUB SWAP1 REVERT JUMPDEST PUSH1 0x0 PUSH1 0x5 PUSH1 0x0 CALLER PUSH20 0xFFFFFFFFFFFFFFFFFFFFFFFFFFFFFFFFFFFFFFFF AND PUSH20 0xFFFFFFFFFFFFFFFFFFFFFFFFFFFFFFFFFFFFFFFF AND DUP2 MSTORE PUSH1 0x20 ADD SWAP1 DUP2 MSTORE PUSH1 0x20 ADD PUSH1 0x0 KECCAK256 SLOAD SWAP1 POP PUSH1 0x0 CALLER SWAP1 POP PUSH1 0x1 PUSH1 0x0 SWAP1 SLOAD SWAP1 PUSH2 0x100 EXP SWAP1 DIV PUSH20 0xFFFFFFFFFFFFFFFFFFFFFFFFFFFFFFFFFFFFFFFF AND PUSH20 0xFFFFFFFFFFFFFFFFFFFFFFFFFFFFFFFFFFFFFFFF AND PUSH4 0xA9059CBB DUP3 DUP5 PUSH1 0x40 MLOAD DUP4 PUSH4 0xFFFFFFFF AND PUSH1 0xE0 SHL DUP2 MSTORE PUSH1 0x4 ADD PUSH2 0x434 SWAP3 SWAP2 SWAP1 PUSH2 0x1259 JUMP JUMPDEST PUSH1 0x20 PUSH1 0x40 MLOAD DUP1 DUP4 SUB DUP2 PUSH1 0x0 DUP8 GAS CALL ISZERO DUP1 ISZERO PUSH2 0x453 JUMPI RETURNDATASIZE PUSH1 0x0 DUP1 RETURNDATACOPY RETURNDATASIZE PUSH1 0x0 REVERT JUMPDEST POP POP POP POP PUSH1 0x40 MLOAD RETURNDATASIZE PUSH1 0x1F NOT PUSH1 0x1F DUP3 ADD AND DUP3 ADD DUP1 PUSH1 0x40 MSTORE POP DUP2 ADD SWAP1 PUSH2 0x477 SWAP2 SWAP1 PUSH2 0x1297 JUMP JUMPDEST POP PUSH2 0x48D DUP3 PUSH1 0x2 SLOAD PUSH2 0xDEC SWAP1 SWAP2 SWAP1 PUSH4 0xFFFFFFFF AND JUMP JUMPDEST PUSH1 0x2 DUP2 SWAP1 SSTORE POP DUP1 PUSH20 0xFFFFFFFFFFFFFFFFFFFFFFFFFFFFFFFFFFFFFFFF AND PUSH32 0xC99009EF3DFC0489EFA43797EEE17157BC922E1CCFDDDD9807414C7CA7B10F7C DUP4 PUSH1 0x40 MLOAD PUSH2 0x4D9 SWAP2 SWAP1 PUSH2 0xF7D JUMP JUMPDEST PUSH1 0x40 MLOAD DUP1 SWAP2 SUB SWAP1 LOG2 PUSH1 0x0 PUSH1 0x5 PUSH1 0x0 CALLER PUSH20 0xFFFFFFFFFFFFFFFFFFFFFFFFFFFFFFFFFFFFFFFF AND PUSH20 0xFFFFFFFFFFFFFFFFFFFFFFFFFFFFFFFFFFFFFFFF AND DUP2 MSTORE PUSH1 0x20 ADD SWAP1 DUP2 MSTORE PUSH1 0x20 ADD PUSH1 0x0 KECCAK256 DUP2 SWAP1 SSTORE POP POP POP JUMP JUMPDEST PUSH2 0x532 PUSH2 0xE02 JUMP JUMPDEST PUSH20 0xFFFFFFFFFFFFFFFFFFFFFFFFFFFFFFFFFFFFFFFF AND PUSH2 0x550 PUSH2 0x81F JUMP JUMPDEST PUSH20 0xFFFFFFFFFFFFFFFFFFFFFFFFFFFFFFFFFFFFFFFF AND EQ PUSH2 0x5A6 JUMPI PUSH1 0x40 MLOAD PUSH32 0x8C379A000000000000000000000000000000000000000000000000000000000 DUP2 MSTORE PUSH1 0x4 ADD PUSH2 0x59D SWAP1 PUSH2 0x1310 JUMP JUMPDEST PUSH1 0x40 MLOAD DUP1 SWAP2 SUB SWAP1 REVERT JUMPDEST DUP1 PUSH1 0x1 PUSH1 0x14 PUSH2 0x100 EXP DUP2 SLOAD DUP2 PUSH1 0xFF MUL NOT AND SWAP1 DUP4 ISZERO ISZERO MUL OR SWAP1 SSTORE POP POP JUMP JUMPDEST PUSH1 0x0 PUSH1 0x5 PUSH1 0x0 CALLER PUSH20 0xFFFFFFFFFFFFFFFFFFFFFFFFFFFFFFFFFFFFFFFF AND PUSH20 0xFFFFFFFFFFFFFFFFFFFFFFFFFFFFFFFFFFFFFFFF AND DUP2 MSTORE PUSH1 0x20 ADD SWAP1 DUP2 MSTORE PUSH1 0x20 ADD PUSH1 0x0 KECCAK256 SLOAD GT PUSH2 0x645 JUMPI PUSH1 0x40 MLOAD PUSH32 0x8C379A000000000000000000000000000000000000000000000000000000000 DUP2 MSTORE PUSH1 0x4 ADD PUSH2 0x63C SWAP1 PUSH2 0x11A7 JUMP JUMPDEST PUSH1 0x40 MLOAD DUP1 SWAP2 SUB SWAP1 REVERT JUMPDEST PUSH2 0x64E CALLER PUSH2 0xD0D JUMP JUMPDEST PUSH2 0x68D JUMPI PUSH1 0x40 MLOAD PUSH32 0x8C379A000000000000000000000000000000000000000000000000000000000 DUP2 MSTORE PUSH1 0x4 ADD PUSH2 0x684 SWAP1 PUSH2 0x137C JUMP JUMPDEST PUSH1 0x40 MLOAD DUP1 SWAP2 SUB SWAP1 REVERT JUMPDEST JUMP JUMPDEST PUSH1 0x3 SLOAD DUP2 JUMP JUMPDEST PUSH1 0x1 PUSH1 0x14 SWAP1 SLOAD SWAP1 PUSH2 0x100 EXP SWAP1 DIV PUSH1 0xFF AND DUP2 JUMP JUMPDEST PUSH1 0x6 PUSH1 0x20 MSTORE DUP1 PUSH1 0x0 MSTORE PUSH1 0x40 PUSH1 0x0 KECCAK256 PUSH1 0x0 SWAP2 POP SWAP1 POP SLOAD DUP2 JUMP JUMPDEST PUSH2 0x6C8 PUSH2 0xE02 JUMP JUMPDEST PUSH20 0xFFFFFFFFFFFFFFFFFFFFFFFFFFFFFFFFFFFFFFFF AND PUSH2 0x6E6 PUSH2 0x81F JUMP JUMPDEST PUSH20 0xFFFFFFFFFFFFFFFFFFFFFFFFFFFFFFFFFFFFFFFF AND EQ PUSH2 0x73C JUMPI PUSH1 0x40 MLOAD PUSH32 0x8C379A000000000000000000000000000000000000000000000000000000000 DUP2 MSTORE PUSH1 0x4 ADD PUSH2 0x733 SWAP1 PUSH2 0x1310 JUMP JUMPDEST PUSH1 0x40 MLOAD DUP1 SWAP2 SUB SWAP1 REVERT JUMPDEST PUSH2 0x746 PUSH1 0x0 PUSH2 0xE0A JUMP JUMPDEST JUMP JUMPDEST PUSH2 0x750 PUSH2 0xE02 JUMP JUMPDEST PUSH20 0xFFFFFFFFFFFFFFFFFFFFFFFFFFFFFFFFFFFFFFFF AND PUSH2 0x76E PUSH2 0x81F JUMP JUMPDEST PUSH20 0xFFFFFFFFFFFFFFFFFFFFFFFFFFFFFFFFFFFFFFFF AND EQ PUSH2 0x7C4 JUMPI PUSH1 0x40 MLOAD PUSH32 0x8C379A000000000000000000000000000000000000000000000000000000000 DUP2 MSTORE PUSH1 0x4 ADD PUSH2 0x7BB SWAP1 PUSH2 0x1310 JUMP JUMPDEST PUSH1 0x40 MLOAD DUP1 SWAP2 SUB SWAP1 REVERT JUMPDEST PUSH1 0x0 DUP2 LT ISZERO DUP1 ISZERO PUSH2 0x7D6 JUMPI POP PUSH1 0x64 DUP2 GT ISZERO JUMPDEST PUSH2 0x815 JUMPI PUSH1 0x40 MLOAD PUSH32 0x8C379A000000000000000000000000000000000000000000000000000000000 DUP2 MSTORE PUSH1 0x4 ADD PUSH2 0x80C SWAP1 PUSH2 0x140E JUMP JUMPDEST PUSH1 0x40 MLOAD DUP1 SWAP2 SUB SWAP1 REVERT JUMPDEST DUP1 PUSH1 0x3 DUP2 SWAP1 SSTORE POP POP JUMP JUMPDEST PUSH1 0x0 DUP1 PUSH1 0x0 SWAP1 SLOAD SWAP1 PUSH2 0x100 EXP SWAP1 DIV PUSH20 0xFFFFFFFFFFFFFFFFFFFFFFFFFFFFFFFFFFFFFFFF AND SWAP1 POP SWAP1 JUMP JUMPDEST PUSH2 0x850 PUSH2 0xE02 JUMP JUMPDEST PUSH20 0xFFFFFFFFFFFFFFFFFFFFFFFFFFFFFFFFFFFFFFFF AND PUSH2 0x86E PUSH2 0x81F JUMP JUMPDEST PUSH20 0xFFFFFFFFFFFFFFFFFFFFFFFFFFFFFFFFFFFFFFFF AND EQ PUSH2 0x8C4 JUMPI PUSH1 0x40 MLOAD PUSH32 0x8C379A000000000000000000000000000000000000000000000000000000000 DUP2 MSTORE PUSH1 0x4 ADD PUSH2 0x8BB SWAP1 PUSH2 0x1310 JUMP JUMPDEST PUSH1 0x40 MLOAD DUP1 SWAP2 SUB SWAP1 REVERT JUMPDEST PUSH1 0x0 DUP2 GT PUSH2 0x907 JUMPI PUSH1 0x40 MLOAD PUSH32 0x8C379A000000000000000000000000000000000000000000000000000000000 DUP2 MSTORE PUSH1 0x4 ADD PUSH2 0x8FE SWAP1 PUSH2 0x147A JUMP JUMPDEST PUSH1 0x40 MLOAD DUP1 SWAP2 SUB SWAP1 REVERT JUMPDEST DUP1 PUSH1 0x4 DUP2 SWAP1 SSTORE POP POP JUMP JUMPDEST PUSH1 0x1 PUSH1 0x14 SWAP1 SLOAD SWAP1 PUSH2 0x100 EXP SWAP1 DIV PUSH1 0xFF AND ISZERO PUSH2 0x961 JUMPI PUSH1 0x40 MLOAD PUSH32 0x8C379A000000000000000000000000000000000000000000000000000000000 DUP2 MSTORE PUSH1 0x4 ADD PUSH2 0x958 SWAP1 PUSH2 0x14E6 JUMP JUMPDEST PUSH1 0x40 MLOAD DUP1 SWAP2 SUB SWAP1 REVERT JUMPDEST PUSH1 0x0 DUP2 GT PUSH2 0x9A4 JUMPI PUSH1 0x40 MLOAD PUSH32 0x8C379A000000000000000000000000000000000000000000000000000000000 DUP2 MSTORE PUSH1 0x4 ADD PUSH2 0x99B SWAP1 PUSH2 0x1552 JUMP JUMPDEST PUSH1 0x40 MLOAD DUP1 SWAP2 SUB SWAP1 REVERT JUMPDEST PUSH1 0x1 PUSH1 0x0 SWAP1 SLOAD SWAP1 PUSH2 0x100 EXP SWAP1 DIV PUSH20 0xFFFFFFFFFFFFFFFFFFFFFFFFFFFFFFFFFFFFFFFF AND PUSH20 0xFFFFFFFFFFFFFFFFFFFFFFFFFFFFFFFFFFFFFFFF AND PUSH4 0x23B872DD CALLER ADDRESS DUP5 PUSH1 0x40 MLOAD DUP5 PUSH4 0xFFFFFFFF AND PUSH1 0xE0 SHL DUP2 MSTORE PUSH1 0x4 ADD PUSH2 0xA03 SWAP4 SWAP3 SWAP2 SWAP1 PUSH2 0x1572 JUMP JUMPDEST PUSH1 0x20 PUSH1 0x40 MLOAD DUP1 DUP4 SUB DUP2 PUSH1 0x0 DUP8 GAS CALL ISZERO DUP1 ISZERO PUSH2 0xA22 JUMPI RETURNDATASIZE PUSH1 0x0 DUP1 RETURNDATACOPY RETURNDATASIZE PUSH1 0x0 REVERT JUMPDEST POP POP POP POP PUSH1 0x40 MLOAD RETURNDATASIZE PUSH1 0x1F NOT PUSH1 0x1F DUP3 ADD AND DUP3 ADD DUP1 PUSH1 0x40 MSTORE POP DUP2 ADD SWAP1 PUSH2 0xA46 SWAP2 SWAP1 PUSH2 0x1297 JUMP JUMPDEST POP PUSH2 0xA5C DUP2 PUSH1 0x2 SLOAD PUSH2 0xECE SWAP1 SWAP2 SWAP1 PUSH4 0xFFFFFFFF AND JUMP JUMPDEST PUSH1 0x2 DUP2 SWAP1 SSTORE POP PUSH2 0xAB4 DUP2 PUSH1 0x5 PUSH1 0x0 CALLER PUSH20 0xFFFFFFFFFFFFFFFFFFFFFFFFFFFFFFFFFFFFFFFF AND PUSH20 0xFFFFFFFFFFFFFFFFFFFFFFFFFFFFFFFFFFFFFFFF AND DUP2 MSTORE PUSH1 0x20 ADD SWAP1 DUP2 MSTORE PUSH1 0x20 ADD PUSH1 0x0 KECCAK256 SLOAD PUSH2 0xECE SWAP1 SWAP2 SWAP1 PUSH4 0xFFFFFFFF AND JUMP JUMPDEST PUSH1 0x5 PUSH1 0x0 CALLER PUSH20 0xFFFFFFFFFFFFFFFFFFFFFFFFFFFFFFFFFFFFFFFF AND PUSH20 0xFFFFFFFFFFFFFFFFFFFFFFFFFFFFFFFFFFFFFFFF AND DUP2 MSTORE PUSH1 0x20 ADD SWAP1 DUP2 MSTORE PUSH1 0x20 ADD PUSH1 0x0 KECCAK256 DUP2 SWAP1 SSTORE POP TIMESTAMP PUSH1 0x6 PUSH1 0x0 CALLER PUSH20 0xFFFFFFFFFFFFFFFFFFFFFFFFFFFFFFFFFFFFFFFF AND PUSH20 0xFFFFFFFFFFFFFFFFFFFFFFFFFFFFFFFFFFFFFFFF AND DUP2 MSTORE PUSH1 0x20 ADD SWAP1 DUP2 MSTORE PUSH1 0x20 ADD PUSH1 0x0 KECCAK256 DUP2 SWAP1 SSTORE POP CALLER PUSH20 0xFFFFFFFFFFFFFFFFFFFFFFFFFFFFFFFFFFFFFFFF AND PUSH32 0x8F169816223F856D6F6A5945E3F7C520EFE6C139D4152B6BB65E454BABB2F2CB PUSH1 0x5 PUSH1 0x0 CALLER PUSH20 0xFFFFFFFFFFFFFFFFFFFFFFFFFFFFFFFFFFFFFFFF AND PUSH20 0xFFFFFFFFFFFFFFFFFFFFFFFFFFFFFFFFFFFFFFFF AND DUP2 MSTORE PUSH1 0x20 ADD SWAP1 DUP2 MSTORE PUSH1 0x20 ADD PUSH1 0x0 KECCAK256 SLOAD PUSH1 0x40 MLOAD PUSH2 0xBC0 SWAP2 SWAP1 PUSH2 0xF7D JUMP JUMPDEST PUSH1 0x40 MLOAD DUP1 SWAP2 SUB SWAP1 LOG2 POP JUMP JUMPDEST PUSH1 0x4 SLOAD DUP2 JUMP JUMPDEST PUSH1 0x2 SLOAD DUP2 JUMP JUMPDEST PUSH1 0x5 PUSH1 0x20 MSTORE DUP1 PUSH1 0x0 MSTORE PUSH1 0x40 PUSH1 0x0 KECCAK256 PUSH1 0x0 SWAP2 POP SWAP1 POP SLOAD DUP2 JUMP JUMPDEST PUSH2 0xBF7 PUSH2 0xE02 JUMP JUMPDEST PUSH20 0xFFFFFFFFFFFFFFFFFFFFFFFFFFFFFFFFFFFFFFFF AND PUSH2 0xC15 PUSH2 0x81F JUMP JUMPDEST PUSH20 0xFFFFFFFFFFFFFFFFFFFFFFFFFFFFFFFFFFFFFFFF AND EQ PUSH2 0xC6B JUMPI PUSH1 0x40 MLOAD PUSH32 0x8C379A000000000000000000000000000000000000000000000000000000000 DUP2 MSTORE PUSH1 0x4 ADD PUSH2 0xC62 SWAP1 PUSH2 0x1310 JUMP JUMPDEST PUSH1 0x40 MLOAD DUP1 SWAP2 SUB SWAP1 REVERT JUMPDEST PUSH1 0x0 PUSH20 0xFFFFFFFFFFFFFFFFFFFFFFFFFFFFFFFFFFFFFFFF AND DUP2 PUSH20 0xFFFFFFFFFFFFFFFFFFFFFFFFFFFFFFFFFFFFFFFF AND EQ ISZERO PUSH2 0xCDB JUMPI PUSH1 0x40 MLOAD PUSH32 0x8C379A000000000000000000000000000000000000000000000000000000000 DUP2 MSTORE PUSH1 0x4 ADD PUSH2 0xCD2 SWAP1 PUSH2 0x161B JUMP JUMPDEST PUSH1 0x40 MLOAD DUP1 SWAP2 SUB SWAP1 REVERT JUMPDEST PUSH2 0xCE4 DUP2 PUSH2 0xE0A JUMP JUMPDEST POP JUMP JUMPDEST PUSH1 0x1 PUSH1 0x0 SWAP1 SLOAD SWAP1 PUSH2 0x100 EXP SWAP1 DIV PUSH20 0xFFFFFFFFFFFFFFFFFFFFFFFFFFFFFFFFFFFFFFFF AND DUP2 JUMP JUMPDEST PUSH1 0x0 DUP1 DUP3 SWAP1 POP PUSH1 0x0 PUSH2 0xD7C PUSH2 0xD2E PUSH1 0x1 PUSH1 0x4 SLOAD PUSH2 0xEE4 SWAP1 SWAP2 SWAP1 PUSH4 0xFFFFFFFF AND JUMP JUMPDEST PUSH1 0x6 PUSH1 0x0 CALLER PUSH20 0xFFFFFFFFFFFFFFFFFFFFFFFFFFFFFFFFFFFFFFFF AND PUSH20 0xFFFFFFFFFFFFFFFFFFFFFFFFFFFFFFFFFFFFFFFF AND DUP2 MSTORE PUSH1 0x20 ADD SWAP1 DUP2 MSTORE PUSH1 0x20 ADD PUSH1 0x0 KECCAK256 SLOAD PUSH2 0xECE SWAP1 SWAP2 SWAP1 PUSH4 0xFFFFFFFF AND JUMP JUMPDEST SWAP1 POP DUP1 TIMESTAMP GT ISZERO PUSH2 0xDE0 JUMPI DUP2 PUSH20 0xFFFFFFFFFFFFFFFFFFFFFFFFFFFFFFFFFFFFFFFF AND PUSH32 0xA415463BD6E1B143312939F13127D2F3B6892631D482BDB33CA450A5A8157A25 PUSH1 0x1 PUSH1 0x40 MLOAD PUSH2 0xDCD SWAP2 SWAP1 PUSH2 0xFA7 JUMP JUMPDEST PUSH1 0x40 MLOAD DUP1 SWAP2 SUB SWAP1 LOG2 PUSH1 0x1 SWAP3 POP POP POP PUSH2 0xDE7 JUMP JUMPDEST PUSH1 0x0 SWAP3 POP POP POP JUMPDEST SWAP2 SWAP1 POP JUMP JUMPDEST PUSH1 0x0 DUP2 DUP4 PUSH2 0xDFA SWAP2 SWAP1 PUSH2 0x166A JUMP JUMPDEST SWAP1 POP SWAP3 SWAP2 POP POP JUMP JUMPDEST PUSH1 0x0 CALLER SWAP1 POP SWAP1 JUMP JUMPDEST PUSH1 0x0 DUP1 PUSH1 0x0 SWAP1 SLOAD SWAP1 PUSH2 0x100 EXP SWAP1 DIV PUSH20 0xFFFFFFFFFFFFFFFFFFFFFFFFFFFFFFFFFFFFFFFF AND SWAP1 POP DUP2 PUSH1 0x0 DUP1 PUSH2 0x100 EXP DUP2 SLOAD DUP2 PUSH20 0xFFFFFFFFFFFFFFFFFFFFFFFFFFFFFFFFFFFFFFFF MUL NOT AND SWAP1 DUP4 PUSH20 0xFFFFFFFFFFFFFFFFFFFFFFFFFFFFFFFFFFFFFFFF AND MUL OR SWAP1 SSTORE POP DUP2 PUSH20 0xFFFFFFFFFFFFFFFFFFFFFFFFFFFFFFFFFFFFFFFF AND DUP2 PUSH20 0xFFFFFFFFFFFFFFFFFFFFFFFFFFFFFFFFFFFFFFFF AND PUSH32 0x8BE0079C531659141344CD1FD0A4F28419497F9722A3DAAFE3B4186F6B6457E0 PUSH1 0x40 MLOAD PUSH1 0x40 MLOAD DUP1 SWAP2 SUB SWAP1 LOG3 POP POP JUMP JUMPDEST PUSH1 0x0 DUP2 DUP4 PUSH2 0xEDC SWAP2 SWAP1 PUSH2 0x169E JUMP JUMPDEST SWAP1 POP SWAP3 SWAP2 POP POP JUMP JUMPDEST PUSH1 0x0 DUP2 DUP4 PUSH2 0xEF2 SWAP2 SWAP1 PUSH2 0x16F4 JUMP JUMPDEST SWAP1 POP SWAP3 SWAP2 POP POP JUMP JUMPDEST PUSH1 0x0 DUP1 REVERT JUMPDEST PUSH1 0x0 DUP2 ISZERO ISZERO SWAP1 POP SWAP2 SWAP1 POP JUMP JUMPDEST PUSH2 0xF14 DUP2 PUSH2 0xEFF JUMP JUMPDEST DUP2 EQ PUSH2 0xF1F JUMPI PUSH1 0x0 DUP1 REVERT JUMPDEST POP JUMP JUMPDEST PUSH1 0x0 DUP2 CALLDATALOAD SWAP1 POP PUSH2 0xF31 DUP2 PUSH2 0xF0B JUMP JUMPDEST SWAP3 SWAP2 POP POP JUMP JUMPDEST PUSH1 0x0 PUSH1 0x20 DUP3 DUP5 SUB SLT ISZERO PUSH2 0xF4D JUMPI PUSH2 0xF4C PUSH2 0xEFA JUMP JUMPDEST JUMPDEST PUSH1 0x0 PUSH2 0xF5B DUP5 DUP3 DUP6 ADD PUSH2 0xF22 JUMP JUMPDEST SWAP2 POP POP SWAP3 SWAP2 POP POP JUMP JUMPDEST PUSH1 0x0 DUP2 SWAP1 POP SWAP2 SWAP1 POP JUMP JUMPDEST PUSH2 0xF77 DUP2 PUSH2 0xF64 JUMP JUMPDEST DUP3 MSTORE POP POP JUMP JUMPDEST PUSH1 0x0 PUSH1 0x20 DUP3 ADD SWAP1 POP PUSH2 0xF92 PUSH1 0x0 DUP4 ADD DUP5 PUSH2 0xF6E JUMP JUMPDEST SWAP3 SWAP2 POP POP JUMP JUMPDEST PUSH2 0xFA1 DUP2 PUSH2 0xEFF JUMP JUMPDEST DUP3 MSTORE POP POP JUMP JUMPDEST PUSH1 0x0 PUSH1 0x20 DUP3 ADD SWAP1 POP PUSH2 0xFBC PUSH1 0x0 DUP4 ADD DUP5 PUSH2 0xF98 JUMP JUMPDEST SWAP3 SWAP2 POP POP JUMP JUMPDEST PUSH1 0x0 PUSH20 0xFFFFFFFFFFFFFFFFFFFFFFFFFFFFFFFFFFFFFFFF DUP3 AND SWAP1 POP SWAP2 SWAP1 POP JUMP JUMPDEST PUSH1 0x0 PUSH2 0xFED DUP3 PUSH2 0xFC2 JUMP JUMPDEST SWAP1 POP SWAP2 SWAP1 POP JUMP JUMPDEST PUSH2 0xFFD DUP2 PUSH2 0xFE2 JUMP JUMPDEST DUP2 EQ PUSH2 0x1008 JUMPI PUSH1 0x0 DUP1 REVERT JUMPDEST POP JUMP JUMPDEST PUSH1 0x0 DUP2 CALLDATALOAD SWAP1 POP PUSH2 0x101A DUP2 PUSH2 0xFF4 JUMP JUMPDEST SWAP3 SWAP2 POP POP JUMP JUMPDEST PUSH1 0x0 PUSH1 0x20 DUP3 DUP5 SUB SLT ISZERO PUSH2 0x1036 JUMPI PUSH2 0x1035 PUSH2 0xEFA JUMP JUMPDEST JUMPDEST PUSH1 0x0 PUSH2 0x1044 DUP5 DUP3 DUP6 ADD PUSH2 0x100B JUMP JUMPDEST SWAP2 POP POP SWAP3 SWAP2 POP POP JUMP JUMPDEST PUSH2 0x1056 DUP2 PUSH2 0xF64 JUMP JUMPDEST DUP2 EQ PUSH2 0x1061 JUMPI PUSH1 0x0 DUP1 REVERT JUMPDEST POP JUMP JUMPDEST PUSH1 0x0 DUP2 CALLDATALOAD SWAP1 POP PUSH2 0x1073 DUP2 PUSH2 0x104D JUMP JUMPDEST SWAP3 SWAP2 POP POP JUMP JUMPDEST PUSH1 0x0 PUSH1 0x20 DUP3 DUP5 SUB SLT ISZERO PUSH2 0x108F JUMPI PUSH2 0x108E PUSH2 0xEFA JUMP JUMPDEST JUMPDEST PUSH1 0x0 PUSH2 0x109D DUP5 DUP3 DUP6 ADD PUSH2 0x1064 JUMP JUMPDEST SWAP2 POP POP SWAP3 SWAP2 POP POP JUMP JUMPDEST PUSH2 0x10AF DUP2 PUSH2 0xFE2 JUMP JUMPDEST DUP3 MSTORE POP POP JUMP JUMPDEST PUSH1 0x0 PUSH1 0x20 DUP3 ADD SWAP1 POP PUSH2 0x10CA PUSH1 0x0 DUP4 ADD DUP5 PUSH2 0x10A6 JUMP JUMPDEST SWAP3 SWAP2 POP POP JUMP JUMPDEST PUSH1 0x0 DUP2 SWAP1 POP SWAP2 SWAP1 POP JUMP JUMPDEST PUSH1 0x0 PUSH2 0x10F5 PUSH2 0x10F0 PUSH2 0x10EB DUP5 PUSH2 0xFC2 JUMP JUMPDEST PUSH2 0x10D0 JUMP JUMPDEST PUSH2 0xFC2 JUMP JUMPDEST SWAP1 POP SWAP2 SWAP1 POP JUMP JUMPDEST PUSH1 0x0 PUSH2 0x1107 DUP3 PUSH2 0x10DA JUMP JUMPDEST SWAP1 POP SWAP2 SWAP1 POP JUMP JUMPDEST PUSH1 0x0 PUSH2 0x1119 DUP3 PUSH2 0x10FC JUMP JUMPDEST SWAP1 POP SWAP2 SWAP1 POP JUMP JUMPDEST PUSH2 0x1129 DUP2 PUSH2 0x110E JUMP JUMPDEST DUP3 MSTORE POP POP JUMP JUMPDEST PUSH1 0x0 PUSH1 0x20 DUP3 ADD SWAP1 POP PUSH2 0x1144 PUSH1 0x0 DUP4 ADD DUP5 PUSH2 0x1120 JUMP JUMPDEST SWAP3 SWAP2 POP POP JUMP JUMPDEST PUSH1 0x0 DUP3 DUP3 MSTORE PUSH1 0x20 DUP3 ADD SWAP1 POP SWAP3 SWAP2 POP POP JUMP JUMPDEST PUSH32 0x496E73756666696369656E742062616C616E6365000000000000000000000000 PUSH1 0x0 DUP3 ADD MSTORE POP JUMP JUMPDEST PUSH1 0x0 PUSH2 0x1191 PUSH1 0x14 DUP4 PUSH2 0x114A JUMP JUMPDEST SWAP2 POP PUSH2 0x119C DUP3 PUSH2 0x115B JUMP JUMPDEST PUSH1 0x20 DUP3 ADD SWAP1 POP SWAP2 SWAP1 POP JUMP JUMPDEST PUSH1 0x0 PUSH1 0x20 DUP3 ADD SWAP1 POP DUP2 DUP2 SUB PUSH1 0x0 DUP4 ADD MSTORE PUSH2 0x11C0 DUP2 PUSH2 0x1184 JUMP JUMPDEST SWAP1 POP SWAP2 SWAP1 POP JUMP JUMPDEST PUSH32 0x5374616B696E6720706572696F6420636F6D706C657465642C20636C61696D20 PUSH1 0x0 DUP3 ADD MSTORE PUSH32 0x796F757220726577617264730000000000000000000000000000000000000000 PUSH1 0x20 DUP3 ADD MSTORE POP JUMP JUMPDEST PUSH1 0x0 PUSH2 0x1223 PUSH1 0x2C DUP4 PUSH2 0x114A JUMP JUMPDEST SWAP2 POP PUSH2 0x122E DUP3 PUSH2 0x11C7 JUMP JUMPDEST PUSH1 0x40 DUP3 ADD SWAP1 POP SWAP2 SWAP1 POP JUMP JUMPDEST PUSH1 0x0 PUSH1 0x20 DUP3 ADD SWAP1 POP DUP2 DUP2 SUB PUSH1 0x0 DUP4 ADD MSTORE PUSH2 0x1252 DUP2 PUSH2 0x1216 JUMP JUMPDEST SWAP1 POP SWAP2 SWAP1 POP JUMP JUMPDEST PUSH1 0x0 PUSH1 0x40 DUP3 ADD SWAP1 POP PUSH2 0x126E PUSH1 0x0 DUP4 ADD DUP6 PUSH2 0x10A6 JUMP JUMPDEST PUSH2 0x127B PUSH1 0x20 DUP4 ADD DUP5 PUSH2 0xF6E JUMP JUMPDEST SWAP4 SWAP3 POP POP POP JUMP JUMPDEST PUSH1 0x0 DUP2 MLOAD SWAP1 POP PUSH2 0x1291 DUP2 PUSH2 0xF0B JUMP JUMPDEST SWAP3 SWAP2 POP POP JUMP JUMPDEST PUSH1 0x0 PUSH1 0x20 DUP3 DUP5 SUB SLT ISZERO PUSH2 0x12AD JUMPI PUSH2 0x12AC PUSH2 0xEFA JUMP JUMPDEST JUMPDEST PUSH1 0x0 PUSH2 0x12BB DUP5 DUP3 DUP6 ADD PUSH2 0x1282 JUMP JUMPDEST SWAP2 POP POP SWAP3 SWAP2 POP POP JUMP JUMPDEST PUSH32 0x4F776E61626C653A2063616C6C6572206973206E6F7420746865206F776E6572 PUSH1 0x0 DUP3 ADD MSTORE POP JUMP JUMPDEST PUSH1 0x0 PUSH2 0x12FA PUSH1 0x20 DUP4 PUSH2 0x114A JUMP JUMPDEST SWAP2 POP PUSH2 0x1305 DUP3 PUSH2 0x12C4 JUMP JUMPDEST PUSH1 0x20 DUP3 ADD SWAP1 POP SWAP2 SWAP1 POP JUMP JUMPDEST PUSH1 0x0 PUSH1 0x20 DUP3 ADD SWAP1 POP DUP2 DUP2 SUB PUSH1 0x0 DUP4 ADD MSTORE PUSH2 0x1329 DUP2 PUSH2 0x12ED JUMP JUMPDEST SWAP1 POP SWAP2 SWAP1 POP JUMP JUMPDEST PUSH32 0x4E6F207265776172647320746F20636C61696D00000000000000000000000000 PUSH1 0x0 DUP3 ADD MSTORE POP JUMP JUMPDEST PUSH1 0x0 PUSH2 0x1366 PUSH1 0x13 DUP4 PUSH2 0x114A JUMP JUMPDEST SWAP2 POP PUSH2 0x1371 DUP3 PUSH2 0x1330 JUMP JUMPDEST PUSH1 0x20 DUP3 ADD SWAP1 POP SWAP2 SWAP1 POP JUMP JUMPDEST PUSH1 0x0 PUSH1 0x20 DUP3 ADD SWAP1 POP DUP2 DUP2 SUB PUSH1 0x0 DUP4 ADD MSTORE PUSH2 0x1395 DUP2 PUSH2 0x1359 JUMP JUMPDEST SWAP1 POP SWAP2 SWAP1 POP JUMP JUMPDEST PUSH32 0x546865206E657720415059206D757374206265206265747765656E203020616E PUSH1 0x0 DUP3 ADD MSTORE PUSH32 0x6420313030000000000000000000000000000000000000000000000000000000 PUSH1 0x20 DUP3 ADD MSTORE POP JUMP JUMPDEST PUSH1 0x0 PUSH2 0x13F8 PUSH1 0x25 DUP4 PUSH2 0x114A JUMP JUMPDEST SWAP2 POP PUSH2 0x1403 DUP3 PUSH2 0x139C JUMP JUMPDEST PUSH1 0x40 DUP3 ADD SWAP1 POP SWAP2 SWAP1 POP JUMP JUMPDEST PUSH1 0x0 PUSH1 0x20 DUP3 ADD SWAP1 POP DUP2 DUP2 SUB PUSH1 0x0 DUP4 ADD MSTORE PUSH2 0x1427 DUP2 PUSH2 0x13EB JUMP JUMPDEST SWAP1 POP SWAP2 SWAP1 POP JUMP JUMPDEST PUSH32 0x6E657720706572696F64206D757374206265206D6F7265207468616E20300000 PUSH1 0x0 DUP3 ADD MSTORE POP JUMP JUMPDEST PUSH1 0x0 PUSH2 0x1464 PUSH1 0x1E DUP4 PUSH2 0x114A JUMP JUMPDEST SWAP2 POP PUSH2 0x146F DUP3 PUSH2 0x142E JUMP JUMPDEST PUSH1 0x20 DUP3 ADD SWAP1 POP SWAP2 SWAP1 POP JUMP JUMPDEST PUSH1 0x0 PUSH1 0x20 DUP3 ADD SWAP1 POP DUP2 DUP2 SUB PUSH1 0x0 DUP4 ADD MSTORE PUSH2 0x1493 DUP2 PUSH2 0x1457 JUMP JUMPDEST SWAP1 POP SWAP2 SWAP1 POP JUMP JUMPDEST PUSH32 0x5374616B696E672069732063757272656E746C792064697361626C6564000000 PUSH1 0x0 DUP3 ADD MSTORE POP JUMP JUMPDEST PUSH1 0x0 PUSH2 0x14D0 PUSH1 0x1D DUP4 PUSH2 0x114A JUMP JUMPDEST SWAP2 POP PUSH2 0x14DB DUP3 PUSH2 0x149A JUMP JUMPDEST PUSH1 0x20 DUP3 ADD SWAP1 POP SWAP2 SWAP1 POP JUMP JUMPDEST PUSH1 0x0 PUSH1 0x20 DUP3 ADD SWAP1 POP DUP2 DUP2 SUB PUSH1 0x0 DUP4 ADD MSTORE PUSH2 0x14FF DUP2 PUSH2 0x14C3 JUMP JUMPDEST SWAP1 POP SWAP2 SWAP1 POP JUMP JUMPDEST PUSH32 0x616D6F756E742073686F756C64206265206D6F7265207468616E203000000000 PUSH1 0x0 DUP3 ADD MSTORE POP JUMP JUMPDEST PUSH1 0x0 PUSH2 0x153C PUSH1 0x1C DUP4 PUSH2 0x114A JUMP JUMPDEST SWAP2 POP PUSH2 0x1547 DUP3 PUSH2 0x1506 JUMP JUMPDEST PUSH1 0x20 DUP3 ADD SWAP1 POP SWAP2 SWAP1 POP JUMP JUMPDEST PUSH1 0x0 PUSH1 0x20 DUP3 ADD SWAP1 POP DUP2 DUP2 SUB PUSH1 0x0 DUP4 ADD MSTORE PUSH2 0x156B DUP2 PUSH2 0x152F JUMP JUMPDEST SWAP1 POP SWAP2 SWAP1 POP JUMP JUMPDEST PUSH1 0x0 PUSH1 0x60 DUP3 ADD SWAP1 POP PUSH2 0x1587 PUSH1 0x0 DUP4 ADD DUP7 PUSH2 0x10A6 JUMP JUMPDEST PUSH2 0x1594 PUSH1 0x20 DUP4 ADD DUP6 PUSH2 0x10A6 JUMP JUMPDEST PUSH2 0x15A1 PUSH1 0x40 DUP4 ADD DUP5 PUSH2 0xF6E JUMP JUMPDEST SWAP5 SWAP4 POP POP POP POP JUMP JUMPDEST PUSH32 0x4F776E61626C653A206E6577206F776E657220697320746865207A65726F2061 PUSH1 0x0 DUP3 ADD MSTORE PUSH32 0x6464726573730000000000000000000000000000000000000000000000000000 PUSH1 0x20 DUP3 ADD MSTORE POP JUMP JUMPDEST PUSH1 0x0 PUSH2 0x1605 PUSH1 0x26 DUP4 PUSH2 0x114A JUMP JUMPDEST SWAP2 POP PUSH2 0x1610 DUP3 PUSH2 0x15A9 JUMP JUMPDEST PUSH1 0x40 DUP3 ADD SWAP1 POP SWAP2 SWAP1 POP JUMP JUMPDEST PUSH1 0x0 PUSH1 0x20 DUP3 ADD SWAP1 POP DUP2 DUP2 SUB PUSH1 0x0 DUP4 ADD MSTORE PUSH2 0x1634 DUP2 PUSH2 0x15F8 JUMP JUMPDEST SWAP1 POP SWAP2 SWAP1 POP JUMP JUMPDEST PUSH32 0x4E487B7100000000000000000000000000000000000000000000000000000000 PUSH1 0x0 MSTORE PUSH1 0x11 PUSH1 0x4 MSTORE PUSH1 0x24 PUSH1 0x0 REVERT JUMPDEST PUSH1 0x0 PUSH2 0x1675 DUP3 PUSH2 0xF64 JUMP JUMPDEST SWAP2 POP PUSH2 0x1680 DUP4 PUSH2 0xF64 JUMP JUMPDEST SWAP3 POP DUP3 DUP3 LT ISZERO PUSH2 0x1693 JUMPI PUSH2 0x1692 PUSH2 0x163B JUMP JUMPDEST JUMPDEST DUP3 DUP3 SUB SWAP1 POP SWAP3 SWAP2 POP POP JUMP JUMPDEST PUSH1 0x0 PUSH2 0x16A9 DUP3 PUSH2 0xF64 JUMP JUMPDEST SWAP2 POP PUSH2 0x16B4 DUP4 PUSH2 0xF64 JUMP JUMPDEST SWAP3 POP DUP3 PUSH32 0xFFFFFFFFFFFFFFFFFFFFFFFFFFFFFFFFFFFFFFFFFFFFFFFFFFFFFFFFFFFFFFFF SUB DUP3 GT ISZERO PUSH2 0x16E9 JUMPI PUSH2 0x16E8 PUSH2 0x163B JUMP JUMPDEST JUMPDEST DUP3 DUP3 ADD SWAP1 POP SWAP3 SWAP2 POP POP JUMP JUMPDEST PUSH1 0x0 PUSH2 0x16FF DUP3 PUSH2 0xF64 JUMP JUMPDEST SWAP2 POP PUSH2 0x170A DUP4 PUSH2 0xF64 JUMP JUMPDEST SWAP3 POP DUP2 PUSH32 0xFFFFFFFFFFFFFFFFFFFFFFFFFFFFFFFFFFFFFFFFFFFFFFFFFFFFFFFFFFFFFFFF DIV DUP4 GT DUP3 ISZERO ISZERO AND ISZERO PUSH2 0x1743 JUMPI PUSH2 0x1742 PUSH2 0x163B JUMP JUMPDEST JUMPDEST DUP3 DUP3 MUL SWAP1 POP SWAP3 SWAP2 POP POP JUMP INVALID LOG2 PUSH5 0x6970667358 0x22 SLT KECCAK256 0x23 SWAP16 SWAP14 SLOAD PUSH6 0xAEECD509CC62 0xC8 0xD4 SWAP6 0xAF 0xCC 0xC8 PUSH17 0x9D445A435A960F554F15B55E5CF464736F PUSH13 0x634300080B0033000000000000 "
		},
		"gasEstimates": {
			"creation": {
				"codeDepositCost": "1204000",
				"executionCost": "infinite",
				"totalCost": "infinite"
			},
			"external": {
				"changeAPY(uint256)": "24909",
				"changePeriod(uint256)": "24828",
				"claim()": "infinite",
				"isDisabled()": "2544",
				"owner()": "2545",
				"renounceOwnership()": "30441",
				"rewardPercentage()": "2519",
				"stake(uint256)": "infinite",
				"stakerBalance(address)": "2858",
				"stakingPeriod()": "2518",
				"timeLastStaked(address)": "2859",
				"token()": "infinite",
				"totalValueLocked()": "2451",
				"transferOwnership(address)": "30789",
				"unstake()": "infinite",
				"updateDisableStaking(bool)": "27015"
			},
			"internal": {
				"checkStakingCompleted(address)": "infinite",
				"getTVL()": "infinite"
			}
		},
		"methodIdentifiers": {
			"changeAPY(uint256)": "76159b68",
			"changePeriod(uint256)": "a4bf1361",
			"claim()": "4e71d92d",
			"isDisabled()": "6c57f5a9",
			"owner()": "8da5cb5b",
			"renounceOwnership()": "715018a6",
			"rewardPercentage()": "52d472eb",
			"stake(uint256)": "a694fc3a",
			"stakerBalance(address)": "eca5b8d3",
			"stakingPeriod()": "c03d5b47",
			"timeLastStaked(address)": "6fd4185e",
			"token()": "fc0c546a",
			"totalValueLocked()": "ec18154e",
			"transferOwnership(address)": "f2fde38b",
			"unstake()": "2def6620",
			"updateDisableStaking(bool)": "2e33d4c1"
		}
	},
	"abi": [
		{
			"inputs": [
				{
					"internalType": "contract Token",
					"name": "_token",
					"type": "address"
				}
			],
			"stateMutability": "nonpayable",
			"type": "constructor"
		},
		{
			"anonymous": false,
			"inputs": [
				{
					"indexed": true,
					"internalType": "address",
					"name": "previousOwner",
					"type": "address"
				},
				{
					"indexed": true,
					"internalType": "address",
					"name": "newOwner",
					"type": "address"
				}
			],
			"name": "OwnershipTransferred",
			"type": "event"
		},
		{
			"anonymous": false,
			"inputs": [
				{
					"indexed": true,
					"internalType": "address",
					"name": "staker",
					"type": "address"
				},
				{
					"indexed": false,
					"internalType": "uint256",
					"name": "amount",
					"type": "uint256"
				}
			],
			"name": "claimed",
			"type": "event"
		},
		{
			"anonymous": false,
			"inputs": [
				{
					"indexed": true,
					"internalType": "address",
					"name": "staker",
					"type": "address"
				},
				{
					"indexed": false,
					"internalType": "bool",
					"name": "hasCompleted",
					"type": "bool"
				}
			],
			"name": "completedStaking",
			"type": "event"
		},
		{
			"anonymous": false,
			"inputs": [
				{
					"indexed": true,
					"internalType": "address",
					"name": "staker",
					"type": "address"
				},
				{
					"indexed": false,
					"internalType": "uint256",
					"name": "amount",
					"type": "uint256"
				}
			],
			"name": "staked",
			"type": "event"
		},
		{
			"anonymous": false,
			"inputs": [
				{
					"indexed": true,
					"internalType": "address",
					"name": "staker",
					"type": "address"
				},
				{
					"indexed": false,
					"internalType": "uint256",
					"name": "amount",
					"type": "uint256"
				}
			],
			"name": "unstaked",
			"type": "event"
		},
		{
			"inputs": [
				{
					"internalType": "uint256",
					"name": "_newValue",
					"type": "uint256"
				}
			],
			"name": "changeAPY",
			"outputs": [],
			"stateMutability": "nonpayable",
			"type": "function"
		},
		{
			"inputs": [
				{
					"internalType": "uint256",
					"name": "_newPeriod",
					"type": "uint256"
				}
			],
			"name": "changePeriod",
			"outputs": [],
			"stateMutability": "nonpayable",
			"type": "function"
		},
		{
			"inputs": [],
			"name": "claim",
			"outputs": [],
			"stateMutability": "nonpayable",
			"type": "function"
		},
		{
			"inputs": [],
			"name": "isDisabled",
			"outputs": [
				{
					"internalType": "bool",
					"name": "",
					"type": "bool"
				}
			],
			"stateMutability": "view",
			"type": "function"
		},
		{
			"inputs": [],
			"name": "owner",
			"outputs": [
				{
					"internalType": "address",
					"name": "",
					"type": "address"
				}
			],
			"stateMutability": "view",
			"type": "function"
		},
		{
			"inputs": [],
			"name": "renounceOwnership",
			"outputs": [],
			"stateMutability": "nonpayable",
			"type": "function"
		},
		{
			"inputs": [],
			"name": "rewardPercentage",
			"outputs": [
				{
					"internalType": "uint256",
					"name": "",
					"type": "uint256"
				}
			],
			"stateMutability": "view",
			"type": "function"
		},
		{
			"inputs": [
				{
					"internalType": "uint256",
					"name": "_amount",
					"type": "uint256"
				}
			],
			"name": "stake",
			"outputs": [],
			"stateMutability": "nonpayable",
			"type": "function"
		},
		{
			"inputs": [
				{
					"internalType": "address",
					"name": "",
					"type": "address"
				}
			],
			"name": "stakerBalance",
			"outputs": [
				{
					"internalType": "uint256",
					"name": "",
					"type": "uint256"
				}
			],
			"stateMutability": "view",
			"type": "function"
		},
		{
			"inputs": [],
			"name": "stakingPeriod",
			"outputs": [
				{
					"internalType": "uint256",
					"name": "",
					"type": "uint256"
				}
			],
			"stateMutability": "view",
			"type": "function"
		},
		{
			"inputs": [
				{
					"internalType": "address",
					"name": "",
					"type": "address"
				}
			],
			"name": "timeLastStaked",
			"outputs": [
				{
					"internalType": "uint256",
					"name": "",
					"type": "uint256"
				}
			],
			"stateMutability": "view",
			"type": "function"
		},
		{
			"inputs": [],
			"name": "token",
			"outputs": [
				{
					"internalType": "contract Token",
					"name": "",
					"type": "address"
				}
			],
			"stateMutability": "view",
			"type": "function"
		},
		{
			"inputs": [],
			"name": "totalValueLocked",
			"outputs": [
				{
					"internalType": "uint256",
					"name": "",
					"type": "uint256"
				}
			],
			"stateMutability": "view",
			"type": "function"
		},
		{
			"inputs": [
				{
					"internalType": "address",
					"name": "newOwner",
					"type": "address"
				}
			],
			"name": "transferOwnership",
			"outputs": [],
			"stateMutability": "nonpayable",
			"type": "function"
		},
		{
			"inputs": [],
			"name": "unstake",
			"outputs": [],
			"stateMutability": "nonpayable",
			"type": "function"
		},
		{
			"inputs": [
				{
					"internalType": "bool",
					"name": "_isDisabled",
					"type": "bool"
				}
			],
			"name": "updateDisableStaking",
			"outputs": [],
			"stateMutability": "nonpayable",
			"type": "function"
		}
	]
}